:020000040000FA
:060000000A128A110C280F
:10000800FE00030EF6000A08F7000A128A11AC284F
:100018000A128A110F28F001F101F201F301F4012B
:1000280083120313A001A101A201A30183010A12F3
:100038008A110F299628051C222823282A28051FFB
:10004800262827282A280715F101F10A0A128A11F9
:1000580049210A128A118312031321087902031D08
:10006800372820087802031C3A283B28AB280310BD
:10007800071D031403184128452883120313071585
:100088004828831203130711F430A0070318A10AA4
:100098000130A107AB28851E522853285628071679
:1000A800F001F00A051B59285A285D288716F00127
:1000B800F00A7003031D61286228AB28871587178B
:1000C8000A128A1149210A128A1179088312031324
:1000D800A1007808A0000230F100AB28851B752824
:1000E8007628772887130A128A1149210A128A1159
:1000F8008312031320087802A6002108031C210A92
:100108007902A70003302702E83003192602031CEE
:100118008E288F28AB28871107128712F001F1016A
:10012800F10AAB28710883120313A600A701270858
:10013800003A0319A028AB282608003A03191F28FB
:10014800013A03194F28033A03197228AB2808000B
:100158000B110730F500750883120313810701306E
:10016800A2070318A30A0030A3070130F500750899
:10017800F20714307202031CC228C328DE280310B9
:10018800071C03140318C928CD2883120313071466
:10019800D0288312031307100310071C0314031835
:1001A800D628DA28831203138714DD288312031351
:1001B8008710F20177088A00760E8300FE0E7E0E05
:1001C8000900831603178801890183160313071191
:1001D8008711071287120713051405178516851747
:1001E8008713071087100A128A1129210A128A1107
:1001F8000A128A1156210A128A118230F900DD305A
:10020800F800F80B0529F90B05290A2983160313A9
:100218000C158B1708000A128A11E5200A128A1198
:100228000A128A113C210A128A1183120313071138
:1002380087110712871207130A128A111E200A1241
:100248008A1120290A128A110C288316031705140B
:10025800831603139F179F121F12831203131F176E
:100268009F17831603170814831203131F1408001B
:10027800F1010A128A1149210A128A117908831296
:100288000313A1007808A00008008B13831203133E
:100298002308A5002208A4008B172508F9002408C4
:1002A800F800080083160313811281110108F83938
:0802B800013881008B160800DB
:04400E00F42CFF3E51
:00000001FF
